:100000000A128A11F02F00308A000408840A82073D
:06001000003464340034EA
:100DA400F401F501F32E8312031307168230F300C6
:100DB400DD30F200F20BDC2EF30BDC2EE12E83127D
:100DC400031307128230F300DD30F200F20BE82E39
:100DD400F30BE82EED2E0130F4070318F50A00306A
:100DE400F5077508803AF2007108803A7202031D13
:100DF400FD2E70087402031C002F012FD52E08004D
:100E0400F0308316031388000712831203130810AB
:100E14008810081188110A128A1132270A128A11BD
:100E24007108F9007008F800780A790403191B2F77
:100E34001C2F252F7908F1007808F0000A128A1176
:100E4400D2260A128A110D30F700FB30F600F60B99
:100E5400292FF70B292F2E2F0D2F0A128A11002864
:100E6400FF30F4000030F5008312031388110814D6
:100E74008230F300DD30F200F20B3E2FF30B3E2FF5
:100E8400432F83120313081E482F492F4D2F073079
:100E9400F4000030F500881E502F512F552F0830D4
:100EA400F4000030F500081F582F592F5D2F09302A
:100EB400F4000030F500881F602F612F652F0A3081
:100EC400F4000030F500081088148230F300DD309F
:100ED400F200F20B6B2FF30B6B2F702F83120313A3
:100EE400081E752F762F7A2F0430F4000030F50099
:100EF400881E7D2F7E2F822F0530F4000030F500F0
:100F0400081F852F862F8A2F0630F4000030F50045
:100F1400881F8D2F8E2F922F0B30F4000030F50098
:100F2400881008158230F300DD30F200F20B982FA0
:100F3400F30B982F9D2F83120313081EA22FA32FA8
:100F4400A72F0130F4000030F500881EAA2FAB2F24
:100F5400AF2F0230F4000030F500081FB22FB32F7A
:100F6400B72F0330F4000030F500881FBA2FBB2FD1
:100F7400BF2F0C30F4000030F500081188158230C2
:100F8400F300DD30F200F20BC52FF30BC52FCA2F8F
:100F940083120313081ECF2FD02FD42F0E30F4004A
:100FA4000030F500881ED72FD82FDA2FF401F50171
:100FB400081FDD2FDE2FE22F0F30F4000030F50084
:100FC400881FE52FE62FEA2F0D30F4000030F500DE
:100FD40088117508F1007408F0000800FA01FB019B
:100FE400FC01FD0183120313A001A101A201A301CD
:0C0FF400A401A50183010A128A11022F3A
:02400E00FD3F74
:00000001FF
